{
  "contractName": "NewContract",
  "abi": [
    {
      "constant": true,
      "inputs": [
        {
          "name": "x",
          "type": "uint256"
        },
        {
          "name": "y",
          "type": "uint256"
        }
      ],
      "name": "sum",
      "outputs": [
        {
          "name": "",
          "type": "uint256"
        }
      ],
      "payable": false,
      "stateMutability": "pure",
      "type": "function"
    }
  ],
  "bytecode": "0x608060405234801561001057600080fd5b5060ab8061001f6000396000f3fe6080604052348015600f57600080fd5b50600436106044577c01000000000000000000000000000000000000000000000000000000006000350463cad0899b81146049575b600080fd5b606960048036036040811015605d57600080fd5b5080359060200135607b565b60408051918252519081900360200190f35b019056fea165627a7a723058203fc6a789c71f0399cd1ce6a463e482832c74fe6950fa0036414879970e00a50a0029",
  "source": "pragma solidity 0.5.6;\n\ncontract NewContract{\n\n    function sum(uint256 x, uint256 y)\n        public\n        pure\n        returns(uint256)\n    {\n        return x + y;\n    }\n}",
  "sourcePath": "/Users/ahmed/PycharmProjects/testProject/contracts/NewContract.sol",
  "compiler": {
    "name": "solc",
    "version": "0.5.6+commit.b259423e.Emscripten.clang"
  },
  "schemaVersion": "3.0.2",
  "updatedAt": "2019-05-28T10:03:24.686Z",
  "devdoc": {
    "methods": {}
  },
  "userdoc": {
    "methods": {}
  }
}